:020000040800F2
:1000000000500020B5030008B5010008B701000842
:10001000B9010008BB010008BD0100080000000094
:10002000000000000000000000000000BF01000808
:10003000C101000800000000C3010008C50100085C
:10004000FD030008FD030008FD030008FD03000890
:10005000FD030008FD030008FD030008FD03000880
:10006000FD030008FD030008FD030008FD03000870
:10007000FD030008FD030008FD030008FD03000860
:10008000FD030008FD030008FD030008FD03000850
:10009000FD030008FD030008FD030008FD03000840
:1000A000FD030008FD030008FD030008FD03000830
:1000B000FD030008FD030008FD030008FD03000820
:1000C000FD030008FD030008FD030008FD03000810
:1000D000FD030008FD030008FD030008FD03000800
:1000E000FD030008FD030008FD03000800000000F8
:1000F0000000000000000000000000000000000000
:0C01000000000000000000005FF808F1A3
:10010C000348044B834202D0034B03B1184770479A
:10011C000000002000000020000000000548064BF5
:10012C001B1AD90F01EBA301491002D0034B03B1E9
:10013C00184770470000002000000020000000005D
:10014C0010B5064C237843B9FFF7DAFF044B13B113
:10015C000448AFF300800123237010BD0000002081
:10016C00000000004804000808B5054B1BB1054908
:10017C000548AFF30080BDE80840FFF7CFBF00BFD4
:10018C0000000000040000204804000808B500F03E
:10019C00ABF800F075F800F05FF800F0FDF84FF4E4
:1001AC007A7000F0EDF8F8E7FEE7FEE7FEE7FEE711
:1001BC00FEE770477047704708B500F087F808BD38
:1001CC00704700001F4B5B6803F00C03042B14D02A
:1001DC00082B16D01BB11C4B1C4A1A6002E01A4BA0
:1001EC001A4A1A60174B5B68C3F30313184AD15CA5
:1001FC00154A1368CB4013607047134B134A1A60AF
:10020C00F0E7104A53685268C3F38343023312F485
:10021C00803F05D10F4A02FB03F30B4A1360E1E761
:10022C00084A526812F4003F05D00A4A02FB03F355
:10023C00054A1360D6E7054A02FB03F3024A136032
:10024C00D0E700BF001002401C00002000127A0012
:10025C006004000800093D00084B5A6822F40002B3
:10026C005A605A6842F480025A605A6822F40012AA
:10027C005A605A6842F480125A607047001001406C
:10028C00024A936943F010039361704700100240D7
:10029C0008B50C4B1B68B3FBF0F00138B0F1807F54
:1002AC000CD24FF0E0235861074AF02182F823105A
:1002BC0000229A6107221A61002008BDFFF778FF1F
:1002CC00FAE700BF1C00002000ED00E0024A1368B2
:1002DC0001331360704700BF20000020014B1868E9
:1002EC00704700BF2000002010B5FFF76BFF4FF4E4
:1002FC007A70FFF7CDFF204A136843F004031360B4
:10030C00A2F58052136843F480331360FFF7E6FFC5
:10031C0004461A4B1B6813F4003F04D1FFF7DEFFB1
:10032C00001B6428F5D9154B5A685A605A6842F478
:10033C00E0125A605A6842F480325A605A685A6025
:10034C005A6842F480625A605A685A601A6842F0DD
:10035C0080721A60094B1B6813F0007FFAD0074AB1
:10036C00536843F002035360FFF72CFF4FF47A708D
:10037C00FFF78EFF10BD00BF0020024000100240AE
:10038C0070B50646FFF7AAFF0546AC19FFF7A6FFA6
:10039C008442FAD870BD0000024AD36883F400533B
:1003AC00D360704700100140FFF70AFF0B480C495F
:1003BC000C4A002302E0D458C4500433C4188C42B5
:1003CC00F9D3094A094C002301E013600432A2421C
:1003DC00FBD300F00FF8FFF7D9FE704700000020A8
:1003EC0000000020780400080000002024000020F9
:1003FC00FEE7000070B500260C4D0D4C641BA410DC
:10040C00A64209D100F01AF800260A4D0A4C641BCA
:10041C00A410A64205D170BD55F8043B984701368F
:10042C00EEE755F8043B98470136F2E770040008F4
:10043C00700400087004000874040008F8B500BFCC
:10044C00F8BC08BC9E467047F8B500BFF8BC08BCA9
:04045C009E46704701
:100460000000000000000000010203040607080964
:04047000750100080A
:040474004D0100082E
:04000005080003B537
:00000001FF
